:100EF80064697374616E63653A20252E316600203B
:100F0800636D2C20616D703A2025642C00202074BC
:100F1800656D703A2025640D0A20002073756D20D8
:100F280025640D0A200020636F756E742025640DFA
:0B0F38000A2000000000000000000084
:0E000300C2AC8F993099FDC299D2AC7F002219
:100BFD00E4900001F0A3F078037C007D017BFF7A87
:100C0D000F793BFE7F081205CE7F807E257D007C0F
:100C1D0000120F4390005BE060FAE4900001F0A336
:100C2D00F0900060E02404FFE433FE900002E0FD4C
:100C3D00C39FEE6480F87480985018745D2DF58212
:100C4D00E43400F583E0FF900001E02FF0A3E00411
:100C5D00F080CE900002E0245DF582E43400F5834F
:100C6D00E0FF900001E06F6003020D01900061E074
:100C7D00FEA3E0FDEEFCE41200CB9000031207286A
:100C8D00900063E0FEA3E0FDEDFF900007EEF0A302
:100C9D00EFF0900065E0FF900009E4F0A3EFF0E4C1
:100CAD00FBFA79207841900003E0FCA3E0FDA3E07E
:100CBD00FEA3E0FF12002990000E1207287BFF7A99
:100CCD000E79F81207E57BFF7A0F7907900007E0A0
:100CDD00FFA3E090000ECFF0A3EFF01207E57BFF2E
:100CED007A0F7915900009E0FFA3E090000ECFF088
:100CFD00A3EF80207BFF7A0F7923900001E0900015
:100D0D000EF01207E57BFF7A0F792E900060E0243C
:100D1D000490000EF01207E5E490005BF0020C2148
:100EA50041005A0041003B005E003C00000000008C
:100EB500000000000000000000000000000000002D
:090EC50000000000000000000024
:03001300020011D7
:0100110032BC
:03002300020D2D9E
:100D2D00C0E0C0F0C083C082C0D075D000C000C08C
:0D0D3D0001C002C003C004C005C006C0070D
:100D4A00900000E4F0309906C29990005CF0209877
:100D5A0003020DFE90003BE0FF04F0743C2FF58285
:100D6A00E43400F583E599F0C29890003CE064A46D
:100D7A006002803190003BE0FFB4020A90003DE03F
:100D8A0064036002801FEFB4030B90003EE0D3942B
:100D9A00104002801090003BE0B4040E90003FE047
:100DAA00D39410400590003BE4F090003BE0FFD361
:100DBA0094034040EF9415503690003FE02405FF1D
:100DCA00E433FE90003BE0FD6F7001EE7026900068
:100DDA005BE0701BEDFF7E00785D7C007D017B018E
:100DEA007A00793C1205CE90005B7401F080009085
:040DFA00003BE4F0E6
:100DFE00D007D006D005D004D003D002D001D00049
:0B0E0E00D0D0D082D083D0F0D0E032F2
:100ECE0041005C0041005B005E005D000000000020
:100EDE000000000000000000000000000000000004
:090EEE00000000000000000000FB
:100F430090000B12072875985043892090000BE0FE
:100F5300F8A3E0F9A3E0FAA3E0FBE47F807E70FD51
:100F6300FC120688EFF404F58DF58B43884043A803
:020F73009022CA
:10002600020143EC5D046005E859047003020139DE
:10003600120104580460F6EC4860F2EC7004FDFE10
:10004600FF22C860DB2481C85009C39860025006AD
:100056000201409850CAF582E9294B4A7005AB82E5
:1000660002012F75F0007C1A7880C3EF9BEE9AEDA3
:1000760099400DC3EF9BFFEE9AFEED99FDE842F025
:10008600DC23ACF0D0E0FFD0E0FED0E0FDAB822078
:10009600E7101BEB60BAEC2CFCEF33FFEE33FEED02
:1000A60033FD02011BE803F830E705C0F075F000E8
:1000B600EF2FFFEE33FEED33FD40B830E7C280AAE6
:1000C60075F020800E75F010800575F0087D007EB5
:1000D600007F003392D530D50312071AEC33401057
:1000E600EF33FFEE33FEED33FDEC33FCD5F0ED22BE
:0E00F600E5F0247EA2D513CC92E7CDCEFF22FA
:10077A00E508240EF582E43400F583E005082290AA
:10078A00000B30070390000EE475F00112073402E3
:10079A0005F42000E97F2ED2008018EF540F249030
:1007AA00D43440D4FF30040BEF24BFB41A005003F2
:1007BA002461FFE50960021509050CE50C700205C4
:1007CA000B30070E90000BE475F001120734EF02AC
:1007DA00063A0200037403D2078003E4C207F5084D
:1007EA0090000B12074BE4F509F50BF50CE50960CF
:1007FA00077F201207BD80F5750AFFC201C200C239
:10080A0002C203C205C206C208120789FF700D3070
:10081A0007057F001207CEAF0CAE0B22B4255FC2CC
:10082A00D5C204120789FF24D0B40A00501A75F001
:10083A000A780930D50508B6FF0106C6A426F620AF
:10084A00D5047002D20380D924CFB41A00EF500421
:10085A00C2E5D204020AC0D20180C6D20080C0D248
:10086A000280BCD2D580BAD20580B47F201207BDDF
:10087A002002077401B5090040F112077AFF120736
:10088A00BD0207F7D208D206809512077AFB120733
:10089A007AFA12077AF94A4B700679BE7A0B7BFF0D
:1008AA0020022EE509602A7E008E827583001206D8
:1008BA000D60060EEE650A70F0C2D5EBC0E0EAC024
:1008CA00E0E9C0E0EE120B21D0E0F9D0E0FAD0E086
:1008DA00FB1205F4FF60AAEBC0E0EAC0E0E9C0E061
:1008EA001207BDD0E02401F9D0E03400FAD0E0FBD1
:1008FA00E50A0460DCD50AD98087D20280A2120BED
:10090A000360F7E50A70010412014EA90A600DE5B9
:10091A000A600914F50A120BABEF60F3EA30E7023A
:10092A00F404C3995079EAF4250A0430E701E4048F
:10093A00F50A800D120B0360C1EA050A250A1201A5
:10094A004EEA90003AF030E701E4250A04D50A0499
:10095A0020050114120B21E4C0E0120BAB90003AFF
:10096A00E0601320E70714F01207A5802204F0D0F4
:10097A00E014C0E07F001207A5E50A600712079C91
:10098A00150A800B30050312079CD0E00207F7D046
:10099A00E00480C4120B03609EE50A0412014E9023
:1009AA00003AEAF0E50A2005026001042404120B69
:0109BA00211B
:1009BB0074FF04C0E0120BAB1207A5E50A20050279
:1009CB00600312079CD0E0B50AE87F451207AF9091
:1009DB00003AE07F2B30E7047F2DF404C0E01207D0
:1009EB00BDD0E075F00A84C0F01207A6D0E0120764
:1009FB00A60207F7791080027908C206C2088008A0
:100A0B00D2D5790A8004790AC2D5E50A047002F5B9
:100A1B000AE4FAFDFEFF12077AFC7B082001131291
:100A2B00077AFD7B1030000A12077AFE12077AFF55
:100A3B007B20EC3382D592D55013C3E43000069F54
:100A4B00FFE49EFEE42001039DFDE49CFCE4CBF857
:100A5B00C201EC700CCFCECDCCE824F8F870F3804B
:100A6B0017C3EF33FFEE33FEED33FDEC33FCEB330B
:100A7B00FB994002FB0FD8E9EB300105F8D0E0C43D
:100A8B0048B201C0E00AEC4D4E4F78207B0070C29B
:100A9B00EAB50A0040BCC0E0120B23D0F0D0E02036
:100AAB000104C4C0E0C4B201C0F01207A6D0F0D557
:100ABB00F0EB0207F712075408945309FF58086527
:100ACB004C0861420A034F0A0B440A0B49087A434C
:100ADB000A1155093E46099E450908470BDE500889
:100AEB00692D086D2E08902B087123088E200BC7DB
:100AFB002A08294800000888E50AB4FF03750A068E
:100B0B0012077AFC12077AFD12077AFE12077AFF98
:100B1B0090003302018B790AA2D52003143005090A
:100B2B00B910020404B9080104A2D5200602500131
:100B3B00042002689202B509005034C0E07F2030D7
:100B4B0003197F30A20272067205500F120B7AC284
:100B5B0002C206C205C2087F30800F300503E9C010
:100B6B00E01207BD300503D0E0F9D0E0B509CC3079
:100B7B0005177F30B9100C1207BD7F583004077F63
:100B8B00788003B908031207BD3002057F2D0207D9
:100B9B00BD7F202008F87F2B2006F322920280CF06
:100BAB007F00B40700500B2433F582E43400F58347
:100BBB00E0FF22286E756C6C2900D20112077A3087
:100BCB0001F8C201780930D50108F60208292D5029
:100BDB0043495812077A2403B405004001E4900BF3
:100BEB00D9931207AE743A1207AED20375090402F9
:020BFB0009FFF0
:10010400E9D2E7C933E833F892D5EDD2E7CD33EC41
:0701140033FC5002B2D522BA
:10011B00EC30E7100FBF000C0EBE00080DBD000445
:10012B000BEB6014A2D5EB13FCED92E7FD2274FFF1
:10013B00FCFDFEFF22E480F8A2D574FF13FC7D804A
:03014B00E480EF5E
:10014E00F920E73624F950037907E4F42402FBE59D
:10015E0082158270021583DBF6E024FB501BE960EA
:10016E0014E4F0E582158270021583E004F0B40AFF
:0D017E0008E4F0D9EE7401F00A22C2D52287
:10018B00ED33EC3392D5FA602AB4FF33EDC2E77B43
:10019B00FF60067A0179B0E4227A0179B920D5049F
:1001AB007A0179B4224E614E002B494E46002D49FF
:1001BB004E4600E47A08F0A3DAFC7B00740722C0F9
:1001CB0083C082ECC0E0EDC0E0EEC0E0EFC0E0EA3F
:1001DB0075F010A4CAABF075F04DA42BFBE435F011
:1001EB00FCEA2410FAEB34C5FBEC34D9FCEDC2E786
:1001FB00FF75F056A4F42411C5F0F434C58FF0A4A8
:10020B002AE5F03BE43CF020E7141204BED0E0FFFB
:10021B00D0E0FED0E0FDD0E0FC1200298014F40405
:10022B001204BED0E0FFD0E0FED0E0FDD0E0FC1227
:10023B000388D082D083E0FAEDD2E7CD33EC3324C0
:10024B0082FBE4C3CF33CFCE33CECD33CD33DBF311
:10025B007B0775F00A846004F0A31B0AE5F0F0A39A
:10026B008FF0740AA4FFACF08EF0740AA42CFEACD1
:10027B00F050010C8DF0740AA42CFDE435F0F0A3C2
:05028B00DBDE74072218
:10029000020139E86480F8E933E83360110460F062
:1002A000ED33EC337009E8FCE9FDEAFEEBFF2204D4
:1002B00060DED3EB9FEA9EE99DE8C2E78CF0C2F7CF
:1002C00095F0400CE8CCF8E9CDF9EACEFAEBCFFB9B
:1002D00012010485D0F05804700320D5B3E80470EF
:1002E000075002B2D502014392D5EC0460F7E4CC8A
:1002F000C0E0C398F8603B94186008400DD0E0FB64
:1003000002011BE4FBFAC9FC8028E830E406E4C9DA
:10031000FBE4CAFCE830E305E4C9CACBFCE85407B7
:100320006010F8C3E913F9EA13FAEB13FBEC13FCC2
:10033000D8F130F52FC3E49CFCEF9BFFEE9AFEED65
:1003400099FDD0E0FBEF4E4D4C701222DB03020111
:1003500040EC2CFCEF33FFEE33FEED33FDED30E7E8
:10036000EB02011BEF2BFFEE3AFEED39FDD0E0FB77
:1003700050130BBB0003020143ED13FDEE13FEEF20
:0803800013FFEC13FC02011B4A
:10038800EC4D6011E8497017ED33EC3304600DE46F
:10039800FCFFFEFD22E933E8330470F8020139124C
:1003A800010458046009E4CC24815006285009024D
:1003B8000143284003020140C0E0EB4A7044B98081
:1003C80006D0E0FB02012FEF4E701CBD8008EBFF4A
:1003D800EAFEE9FD80EBE98DF0A4FEE5F002047188
:1003E800E9CDF9EAFEEBFFEF89F0A4FCE5F0CE8950
:1003F800F0A42EFFE435F0CD89F0A42DFEE435F00D
:100408008067EF4E7005BD80D780C3EF8BF0A4AC3A
:10041800F0EE8BF0A42CFCE435F0F8EF8AF0A42C75
:10042800E5F038FCE433CB8DF0A42CFCE5F03BF888
:10043800EE8AF0A42CFCE5F038F8E433CF89F0A478
:100448002CFCE5F038CF3400CE89F0A42FFFE5F07E
:100458003EFEE433C98DF0A42EFEE5F039CD8AF0D6
:10046800A42FFFE5F03EFEE43DFD33D0E0FB50074E
:100478000BBB000F020143EC2CFCEF33FFEE33FE05
:06048800ED33FD02011B33
:10048E003F8000004120000042C80000447A000076
:10049E00461C400047C35000497424004B189680F8
:1004AE004CBEBC205A0E1BCA6753C21C749DC5AEEF
:1004BE00FB60065407601C23231204ECEB543860D7
:1004CE00091204D81204E7120388ECF8EDF9EEFADB
:1004DE00EFCB22EB1204E780F1543803241C900476
:1004EE008EFE93FC0EEE93FD0EEE930ECE93FF2238
:03000000020E19D4
:0C0E1900787FE4F6D8FD758121020E60A0
:1004FE00E709F608DFFA8046E709F208DFFA803EE0
:10050E0088828C83E709F0A3DFFA8032E309F608CC
:10051E00DFFA8078E309F208DFFA807088828C8334
:10052E00E309F0A3DFFA806489828A83E0A3F608E8
:10053E00DFFA805889828A83E0A3F208DFFA804CC2
:10054E0080D280FA80C680D4806980F28033801099
:10055E0080A680EA809A80A880DA80E280CA803302
:10056E0089828A83ECFAE493A3C8C582C8CCC5837A
:10057E00CCF0A3C8C582C8CCC583CCDFE9DEE7804A
:10058E000D89828A83E493A3F608DFF9ECFAA9F0C9
:10059E00EDFB2289828A83ECFAE0A3C8C582C8CC1F
:1005AE00C583CCF0A3C8C582C8CCC583CCDFEADE38
:1005BE00E880DB89828A83E493A3F208DFF980CC9A
:1005CE0088F0EF60010E4E60C388F0ED2402B40493
:1005DE000050B9F582EB2402B4040050AF2323453A
:0605EE00822390054E730C
:1005F400BB010689828A83E0225002E722BBFE0205
:09060400E32289828A83E4932237
:10060D00BB010CE58229F582E5833AF583E02250A2
:10061D0006E92582F8E622BBFE06E92582F8E222EC
:0D062D00E58229F582E5833AF583E4932206
:10063A00BB010689828A83F0225002F722BBFE019F
:02064A00F32299
:10064C0075F008758200EF2FFFEE33FECD33CDCC65
:10065C0033CCC58233C5829BED9AEC99E5829840E8
:10066C000CF582EE9BFEED9AFDEC99FC0FD5F0D6C5
:10067C00E4CEFBE4CDFAE4CCF9A88222B800C1B9EF
:10068C000059BA002DEC8BF084CFCECDFCE5F0CB2D
:10069C00F97818EF2FFFEE33FEED33FDEC33FCEB66
:1006AC0033FB10D703994004EB99FB0FD8E5E4F921
:1006BC00FA227818EF2FFFEE33FEED33FDEC33FC0E
:1006CC00C933C910D7059BE99A4007EC9BFCE99A02
:1006DC00F90FD8E0E4C9FAE4CCFB2275F010EF2F47
:1006EC00FFEE33FEED33FDCC33CCC833C810D70747
:1006FC009BEC9AE899400AED9BFDEC9AFCE899F882
:0E070C000FD5F0DAE4CDFBE4CCFAE4C8F92214
:0E071A00C3E49FFFE49EFEE49DFDE49CFC22F0
:0C072800ECF0A3EDF0A3EEF0A3EFF02244
:10073400F8E0FBA3A3E0F925F0F0E582158270024E
:070744001583E0FA38F022F2
:09074B00EBF0A3EAF0A3E9F022AF
:10075400D083D082F8E4937012740193700DA3A334
:1007640093F8740193F5828883E473740293686048
:06077400EFA3A3A380DF48
:100E2500020BFDE493A3F8E493A34003F68001F2DB
:100E350008DFF48029E493A3F85407240CC8C333CE
:100E4500C4540F4420C8834004F456800146F6DF9D
:100E5500E4800B0102040810204080900EA5E47E7A
:100E6500019360BCA3FF543F30E509541FFEE49392
:100E7500A360010ECF54C025E060A840B8E493A359
:100E8500FAE493A3F8E493A3C8C582C8CAC583CA84
:100E9500F0A3C8C582C8CAC583CADFE9DEE780BE3C
:010EF70000FA
:00000001FF
