:0D00160000000000000000000000000000DD
:060B3500011E00011F007B
:100A61008F0D8E0C8D0B8C0A759850438920AB0D20
:100A7100AA0CA90BA80AE47F807E70FDFC12057DFB
:0E0A8100EFF404F58DF58B43884043A89022D6
:0A0B7000E51E70FC8F99751E01222E
:060963008B528A538954F7
:10096900E4F555E555C39D5043ED14FFE555C39F87
:100979005022AB52AA53A95485558275830012049B
:1009890078FFED75830024FFF582E58334FFF58355
:10099900EF1204A5AB52AA53A954AF5505558F823E
:0C09A900758300120478FF120B7080B7F9
:0109B500221F
:080838008B358A3689378D38B3
:10084000783A7C007D007BFF7A0079167E007F0D70
:10085000120452E4FF0F243AF8765A0F743A240136
:10086000F8765A0F743A2402F8A6390F743A240322
:10087000F8A638E4FEEEC39538501BAB35AA36A96E
:10088000378E82758300120478FDAC070F743A2C02
:10089000F8A6050E80DF7B007A00793AE53824055A
:0408A000FD020963E9
:08068A008B228A2389248D25AF
:10069200E4F534FDE52575F002A42405FFE435F008
:1006A200FE7B007A00792712060FAF3405347427D7
:1006B2002FF8765AAF34053474272FF8765AAF34B0
:1006C200053474272FF8A626E52525E0FFAE34056C
:1006D2003474272EF8A607E4FDEDC39525503BABF5
:1006E20022AA23A92475F002EDA4F58285F08312D3
:1006F20004EAE5F0FFAE34053474272EF8A6077538
:10070200F002EDA4F58285F0831204EAFFAE34050F
:100712003474272EF8A6070D80BF7B007A00792754
:0A072200E52525E02405FD0209632A
:0B0B3B00015100014D00034E000000BE
:03001300020B7D60
:010B7D003245
:03002300020907C8
:0D090700C0E0C0D075D000C000C006C00721
:10091400E4309904C299F51E309839AE4D054D74F2
:100924004E2EF8A699C298E54EB4A503D38001C310
:100934004003754D00E54DB4031AE54E254FB550FF
:1009440010E54FB4BB03751F01E54FB45103751F88
:0409540000754D00DD
:0B095800D007D006D000D0D0D0E03295
:020011000000ED
:030B7A008F1022B7
:100AB600D2B77F01120B7AD2B6120B7A20B7021F79
:100AC60022C2B77F01120B7A30B7021F22C2B67F4D
:050AD60001120B7A2261
:100B4700C2B7C2B67F01120B7AD2B6120B7AD2B7EE
:010B5700227B
:100B2000BF0104D2B78002C2B7D2B67F01120B7ADE
:050B3000C2B6020B7AC1
:100B0000E4FFD2B7D2B630B7040FBF02F930B70551
:0F0B1000C2B67F00227F01120B7AC2B6120B7A97
:010B1F0022B3
:020ADB00AE0764
:100ADD00C2B6E4FDEE30E704D2B78002C2B7D2B69B
:100AED007F01120B7AC2B6120B7AEE25E0FE0DBD18
:020AFD0008E20D
:010AFF0022D4
:100A8F00E4FED2B77F01120B7AFDEE25E0FED2B65F
:100A9F0030B7034306017F01120B7AC2B6120B7AED
:060AAF000DBD08E6AF06D4
:010AB500221E
:1009B600AE07AC03AB05120AB6EF70028025AF0690
:1009C600120ADB120B00EF70028018AF03120ADB6B
:1009D600120B00EF7002800BAF04120ADB120B0041
:0E09E600EF7005120B47FF22120B477F012214
:1007B8008D488B498A4A894BAC07120AB6EF7002FA
:1007C800802EAF04120ADB120B00EF70028021AFFB
:1007D80048120ADB120B00EF70028014120AB6EFFF
:1007E8007002800CEC04FF120ADB120B00EF70059C
:1007F800120B47FF22E54C14601E120A8FAB490505
:100808004BE54BAA4A7002054A14F9EF1204D8E4E2
:10081800FF120B20154C80DD120A8FAB49AA4AA99A
:100828004BEF1204D87F01120B20120B477F0122D5
:1009F400AE077F28120B7A120AB6EF7002801DAF81
:100A040006120ADB120B00EF700280107F28120B13
:100A14007A7F51120ADB120B00EF7005120B47FFAD
:070A240022120B477F0122A3
:0808A4008F0A8B0B8A0C890DF1
:1008AC00780E7C007D007BFF7A0079117E007F0240
:1008BC00120452120AB6EF7002800BAF0A120ADB56
:1008CC00120B00EF7005120B47FF227F32120B7ACE
:1008DC00120A8F8F0EE4FF120B20120A8F8F0F7FDC
:1008EC0001120B20120B47E50EFFE50FAB0BAA0C08
:0A08FC00A90DCF8FF01205227F0135
:0109060022CE
:0D0B580064697374616E63653A2025640062
:0E000300C2AC8F993099FDC299D2AC7F002219
:0B0B6500EF1FAC0670011E4C70F62262
:100A2B00E4F508F5097F807E25FDFC120A617B0049
:100A3B007A0079087FA51208A47FA41209F47BFF22
:100A4B007A0B795885080D85090E1200887F607E18
:060A5B00EA120B6580D8D1
:0300000002072CC8
:0C072C00787FE4F6D8FD75815502077354
:10038200E709F608DFFA8046E709F208DFFA803E5D
:1003920088828C83E709F0A3DFFA8032E309F6084A
:1003A200DFFA8078E309F208DFFA807088828C83B2
:1003B200E309F0A3DFFA806489828A83E0A3F60866
:1003C200DFFA805889828A83E0A3F208DFFA804C40
:1003D20080D280FA80C680D4806980F28033801017
:1003E20080A680EA809A80A880DA80E280CA803380
:1003F20089828A83ECFAE493A3C8C582C8CCC583F8
:10040200CCF0A3C8C582C8CCC583CCDFE9DEE780C7
:100412000D89828A83E493A3F608DFF9ECFAA9F046
:10042200EDFB2289828A83ECFAE0A3C8C582C8CC9C
:10043200C583CCF0A3C8C582C8CCC583CCDFEADEB5
:10044200E880DB89828A83E493A3F208DFF980CC17
:1004520088F0EF60010E4E60C388F0ED2402B40410
:100462000050B9F582EB2402B4040050AF232345B7
:0604720082239003D27307
:10047800BB010CE58229F582E5833AF583E0225039
:1004880006E92582F8E622BBFE06E92582F8E22283
:0D049800E58229F582E5833AF583E493229D
:1004A500BB010FF8E58229F582E5833AF583E0285B
:1004B500F0225009C58229F8E58226F622BBFE09FD
:1004C500C58229F8E22582F222F8EA2583F583E937
:0304D50093282247
:1004D800BB010689828A83F0225002F722BBFE0103
:0204E800F322FD
:1004EA00BB0110E58229F582E5833AF583E0F5F050
:1004FA00A3E0225009E92582F886F008E622BBFE2D
:10050A000AE92582F8E2F5F008E222E5832AF58372
:08051A00E993F5F0A3E9932237
:10052200BB010A89828A83F0E5F0A3F0225006F724
:0F05320009A7F01922BBFE06F3E5F009F3192221
:1005410075F008758200EF2FFFEE33FECD33CDCC71
:1005510033CCC58233C5829BED9AEC99E5829840F4
:100561000CF582EE9BFEED9AFDEC99FC0FD5F0D6D1
:10057100E4CEFBE4CDFAE4CCF9A88222B800C1B9FB
:100581000059BA002DEC8BF084CFCECDFCE5F0CB39
:10059100F97818EF2FFFEE33FEED33FDEC33FCEB72
:1005A10033FB10D703994004EB99FB0FD8E5E4F92D
:1005B100FA227818EF2FFFEE33FEED33FDEC33FC1A
:1005C100C933C910D7059BE99A4007EC9BFCE99A0E
:1005D100F90FD8E0E4C9FAE4CCFB2275F010EF2F53
:1005E100FFEE33FEED33FDCC33CCC833C810D70753
:1005F1009BEC9AE899400AED9BFDEC9AFCE899F88E
:0E0601000FD5F0DAE4CDFBE4CCFAE4C8F92220
:10002600E519240DF8E6051922780A300702780D3D
:10003600E475F00112065402063B2000EB7F2ED237
:10004600008018EF540F2490D43440D4FF30040BB2
:10005600EF24BFB41A0050032461FFE51A600215AD
:100066001A051DE51D7002051C30070D780AE4759A
:10007600F001120654EF0204D80200037403D207FB
:100086008003E4C207F5198B0A8A0B890CE4F51A7A
:10009600F51CF51DE51A60077F2012006180F575D5
:1000A6001BFFC201C200C202C203C205C206C208C9
:1000B60012002FFF700D3007057F00120072AF1D72
:1000C600AE1C22B4255FC2D5C20412002FFF24D075
:1000D600B40A00501A75F00A781A30D50508B6FF2A
:1000E6000106C6A426F620D5047002D20380D924C0
:1000F600CFB41A00EF5004C2E5D204020272D20154
:1001060080C6D20080C0D20280BCD2D580BAD205C9
:1001160080B47F201200612002077401B51A0040E6
:10012600F1120026FF12006102009AD208D2068060
:1001360095120026FB120026FA120026F94A4B7089
:100146000679437A037BFF20022EE51A602A7E0099
:100156008E8275830012047860060EEE651B70F0C1
:10016600C2D5EBC0E0EAC0E0E9C0E0EE1202B9D0C9
:10017600E0F9D0E0FAD0E0FB12063BFF60AAEBC044
:10018600E0EAC0E0E9C0E0120061D0E02401F9D065
:10019600E03400FAD0E0FBE51B0460DCD51BD98017
:1001A600877BFF7A0279B5D202809C79108002792A
:1001B60008C206C2088008D2D5790A8004790AC224
:1001C600D5E51B047002F51BE4FAFDFEFF120026BE
:1001D600FC7B08200113120026FD7B1030000A125A
:1001E6000026FE120026FF7B20EC3382D592D550E6
:1001F60013C3E43000069FFFE49EFEE42001039D46
:10020600FDE49CFCE4CBF8C201EC700CCFCECDCC67
:10021600E824F8F870F38017C3EF33FFEE33FEEDF2
:1002260033FDEC33FCEB33FB994002FB0FD8E9EBD3
:10023600300105F8D0E0C448B201C0E00AEC4D4EEA
:100246004F78207B0070C2EAB51B0040BCC0E012AC
:1002560002BBD0F0D0E0200104C4C0E0C4B201C0AB
:10026600F012004AD0F0D5F0EB02009A12066401B3
:10027600375301B15801084C01044201B54F01BD85
:0F0286004401BD49011D4301C35501A74601A70E
:100295004501A747036350010C2D01102E01332B97
:1002A500011423013120034C2A00CC480000012B06
:1002B5003F3F3F00790AA2D5200314300509B91044
:1002C500020404B9080104A2D52006025001042045
:1002D50002689202B51A005034C0E07F203003193D
:1002E5007F30A20272067205500F120312C202C2BB
:1002F50006C205C2087F30800F300503E9C0E01251
:100305000061300503D0E0F9D0E0B51ACC3005170F
:100315007F30B9100C1200617F583004077F788058
:1003250003B908031200613002057F2D0200617FC9
:10033500202008F87F2B2006F322920280CF286E1A
:10034500756C6C2900D2011200263001F8C20178C3
:100355001A30D50108F60200CC2D50434958120039
:10036500262403B405004001E490035E9312005275
:0D037500743A120052D203751A040201B14D
:10060F00EF4E6012EF60010EEDBB010B89828A8302
:10061F00F0A3DFFCDEFA2289F05007F709DFFCA90F
:0C062F00F022BBFEFCF309DFFCA9F02266
:10073800020A2BE493A3F8E493A34003F68001F2A2
:1007480008DFF48029E493A3F85407240CC8C333C2
:10075800C4540F4420C8834004F456800146F6DF91
:10076800E4800B0102040810204080900B35E47EE1
:10077800019360BCA3FF543F30E509541FFEE49386
:10078800A360010ECF54C025E060A840B8E493A34D
:10079800FAE493A3F8E493A3C8C582C8CAC583CA78
:1007A800F0A3C8C582C8CAC583CADFE9DEE780BE30
:010B460000AE
:10063B00BB010689828A83E0225002E722BBFE02BD
:09064B00E32289828A83E49322F0
:10065400FAE6FB0808E6F925F0F618E6CA3AF622A7
:10066400D083D082F8E4937012740193700DA3A325
:1006740093F8740193F5828883E473740293686039
:06068400EFA3A3A380DF39
:00000001FF
