:0D00160000000000000000000000000000DD
:06115B00016E00016F00AF
:101087008F3F8E3E8D3D8C3C759850438920AB3FFA
:10109700AA3EA93DA83CE47F807E70FDFC1206E3D2
:0E10A700EFF404F58DF58B43884043A89022AA
:0A118900E56E70FC8F99756E01226F
:060FB9008B6A8A6B896C53
:100FBF00E4F56DE56DC39D5043ED14FFE56DC39FE3
:100FCF005022AB6AAA6BA96C856D827583001205DE
:100FDF00FDFFED75830024FFF582E58334FFF58374
:100FEF00EF12062AAB6AAA6BA96CAF6D056D8F82E3
:0C0FFF007583001205FDFF12118980B7F8
:01100B0022C2
:080EF1008B588A59895A8D5B68
:100EF900785D7C007D007BFF7A0079167E007F0D8E
:100F09001205BEE4FF0F245DF8765A0F745D2401C3
:100F1900F8765A0F745D2402F8A65C0F745D2403F9
:100F2900F8A65BE4FEEEC3955B501BAB58AA59A922
:100F39005A8E827583001205FDFDAC070F745D2C76
:100F4900F8A6050E80DF7B007A00795DE55B240554
:040F5900FD020FB9CD
:080D43008B088A09890A8D0B57
:100D4B00E4F51AFDE50B75F002A42405FFE435F07C
:100D5B00FE7B007A00790D1207B9AF1A051A740DD4
:100D6B002FF8765AAF1A051A740D2FF8765AAF1A58
:100D7B00051A740D2FF8A60CE50B25E0FFAE1A052E
:100D8B001A740D2EF8A607E4FDEDC3950B503BAB83
:100D9B0008AA09A90A75F002EDA4F58285F0831261
:100DAB00066FE5F0FFAE1A051A740D2EF8A607753F
:100DBB00F002EDA4F58285F08312066FFFAE1A05E3
:100DCB001A740D2EF8A6070D80BF7B007A00790DE3
:0A0DDB00E50B25E02405FD020FB929
:0B116100011F00011B00031C00000028
:03001300020011D7
:0100110032BC
:03002300020F5D6C
:0D0F5D00C0E0C0D075D000C000C006C007C5
:100F6A00E4309904C299F56E309839AE1B051B74AA
:100F7A001C2EF8A699C298E51CB4A503D38001C318
:100F8A004003751B00E51BB4031AE51C251DB51E9D
:100F9A0010E51DB4BB03756F01E51DB45103756FF0
:040FAA0000751B00B3
:0B0FAE00D007D006D000D0D0D0E03239
:031193008F422266
:1010DC00D2B77F01121193D2B612119320B7021F0F
:1010EC0022C2B77F0112119330B7021F22C2B67F02
:0510FC00011211932216
:10116D00C2B7C2B67F01121193D2B6121193D2B784
:01117D00224F
:10114600BF0104D2B78002C2B7D2B67F0112119393
:05115600C2B602119376
:10112600E4FFD2B7D2B630B7040FBF02F930B70525
:0F113600C2B67F00227F01121193C2B61211932D
:011145002287
:02110100AE0737
:10110300C2B6E4FDEE30E704D2B78002C2B7D2B66E
:101113007F01121193C2B6121193EE25E0FE0DBDAD
:0211230008E2E0
:0111250022A7
:1010B500E4FED2B77F01121193FDEE25E0FED2B614
:1010C50030B7034306017F01121193C2B612119383
:0610D5000DBD08E6AF06A8
:0110DB0022F2
:10100C00AE07AC03AB051210DCEF70028025AF0607
:10101C00121101121126EF70028018AF0312110188
:10102C00121126EF7002800BAF041211011211265F
:0E103C00EF700512116DFF2212116D7F01225F
:100E71008D3D8B3E8A3F8940AC071210DCEF70023A
:100E8100802EAF04121101121126EF70028021AFE2
:100E91003D121101121126EF700280141210DCEFC5
:100EA1007002800CEC04FF121101121126EF700583
:100EB10012116DFF22E54114601E1210B5AB3E0503
:100EC10040E540AA3F7002053F14F9EF12065DE4C8
:100ED100FF121146154180DD1210B5AB3EAA3FA9A4
:100EE10040EF12065D7F0112114612116D7F012242
:10104A0064697374616E63653A20252E31660020E7
:10105A00636D2C20616D703A202575642C00202068
:10106A0074656D703A2025640D0A200000000000A6
:0D107A000000000000000000000000000069
:0E000300C2AC8F993099FDC299D2AC7F002219
:0B117E00EF1FAC0670011E4C70F62243
:100C540078227C007D007BFF7A1079767E007F0904
:100C64001205BE782B7C007D007BFF7A10797F7E95
:100C7400007F081205BEE4F53B7F807E25FDFC1253
:100C840010877F2C7E0112117E753B027B027D0250
:100C94007FA412100CE53B14601214601714601C3E
:100CA4002403701E7533037534E3801675330075A1
:100CB400345F800E75330075341280067533007509
:100CC40034047F017E0012117E20B5FD7F037E0077
:100CD40012117E7B007A0079227541057D087FA47C
:100CE400120E71EF60E3E522F535E523F536E524D0
:100CF400F537E525F53875390085263AAC35AD3636
:100D0400E41200CBE4FBFA792078411200298F42E7
:100D14008E418D408C3F7BFF7A10794A1208477BC5
:100D2400FF7A10795985373F8538401208477BFF91
:0F0D34007A10796885393F853A40120847808ADE
:10002600020143EC5D046005E859047003020139DE
:10003600120104580460F6EC4860F2EC7004FDFE10
:10004600FF22C860DB2481C85009C39860025006AD
:100056000201409850CAF582E9294B4A7005AB82E5
:1000660002012F75F0007C1A7880C3EF9BEE9AEDA3
:1000760099400DC3EF9BFFEE9AFEED99FDE842F025
:10008600DC23ACF0D0E0FFD0E0FED0E0FDAB822078
:10009600E7101BEB60BAEC2CFCEF33FFEE33FEED02
:1000A60033FD02011BE803F830E705C0F075F000E8
:1000B600EF2FFFEE33FEED33FD40B830E7C280AAE6
:1000C60075F020800E75F010800575F0087D007EB5
:1000D600007F003392D530D503120775EC334010FC
:1000E600EF33FFEE33FEED33FDEC33FCD5F0ED22BE
:0E00F600E5F0247EA2D513CC92E7CDCEFF22FA
:1007E500E553243FF8E6055322783C300702783F6D
:1007F500E475F0011207830205E42000EB7F2ED299
:10080500008018EF540F2490D43440D4FF30040BEB
:10081500EF24BFB41A0050032461FFE554600215AC
:10082500540557E5577002055630070D783CE475B9
:10083500F001120783EF02065D0200037403D2077D
:100845008003E4C207F5538B3C8A3D893EE4F554A9
:10085500F556F557E55460077F2012082080F57599
:1008650055FFC201C200C202C203C205C206C208C8
:100875001207EEFF700D3007057F00120831AF57E4
:10088500AE5622B4255FC2D5C2041207EEFF24D0AE
:10089500B40A00501A75F00A785430D50508B6FF29
:1008A5000106C6A426F620D5047002D20380D924F9
:1008B500CFB41A00EF5004C2E5D204020B1ED201D8
:1008C50080C6D20080C0D20280BCD2D580BAD20503
:1008D50080B47F201208202002077401B55400401F
:1008E500F11207E5FF120820020859D208D2068046
:1008F500951207E5FB1207E5FA1207E5F94A4B7071
:100905000679157A0C7BFF20022EE554602A7E00BD
:100915008E827583001205FD60060EEE655570F03A
:10092500C2D5EBC0E0EAC0E0E9C0E0EE120B7ED034
:10093500E0F9D0E0FAD0E0FB1205E4FF60AAEBC0D5
:10094500E0EAC0E0E9C0E0120820D0E02401F9D0D7
:10095500E03400FAD0E0FBE5550460DCD555D980DC
:1009650087D20280A2120B6160F7E555700104126F
:10097500014EA955600DE555600914F555120C0891
:10098500EF60F3EA30E702F404C3995077EAF425FF
:10099500550430E701E404F555800D120B6160C183
:1009A500EA0555255512014EEA7852F630E701E47D
:1009B500255504D5550420050114120B7EE4C0E02D
:1009C500120C087852E6601320E70714F61208089F
:1009D500802204F6D0E014C0E07F00120808E55537
:1009E50060071207FF1555800B3005031207FFD06E
:1009F500E0020859D0E00480C5120B6160A0E555FE
:100A05000412014E7852EAF6E5552005026001040C
:050A15002404120B7E19
:100A1A0074FF04C0E0120C08120808E5552005020C
:100A2A0060031207FFD0E0B555E87F451208127837
:100A3A0052E67F2B30E7047F2DF404C0E012082031
:100A4A00D0E075F00A84C0F0120809D0E012080953
:100A5A00020859791080027908C206C2088008D2B1
:100A6A00D5790A8004790AC2D5E555047002F5558C
:100A7A00E4FAFDFEFF1207E5FC7B082001131207CA
:100A8A00E5FD7B1030000A1207E5FE1207E5FF7B41
:100A9A0020EC3382D592D55013C3E43000069FFF71
:100AAA00E49EFEE42001039DFDE49CFCE4CBF8C235
:100ABA0001EC700CCFCECDCCE824F8F870F3801797
:100ACA00C3EF33FFEE33FEED33FDEC33FCEB33FBC8
:100ADA00994002FB0FD8E9EB300105F8D0E0C44891
:100AEA00B201C0E00AEC4D4E4F78207B0070C2EA9A
:100AFA00B5550040BCC0E0120B80D0F0D0E0200118
:100B0A0004C4C0E0C4B201C0F0120809D0F0D5F0A4
:100B1A00EB02085912079308F6530A5D5808C74CA6
:100B2A0008C3420A614F0A69440A694908DC430A50
:100B3A006F5509A04609FE45096A470C355008CB8E
:100B4A002D08CF2E08F22B08D32308F0200C1E2ADA
:100B5A00088B48000008EAE555B4FF0375550612EC
:100B6A0007E5FC1207E5FD1207E5FE1207E5FF7827
:100B7A004B02017D790AA2D5200314300509B91068
:100B8A00020404B9080104A2D52006025001042077
:100B9A0002689202B554005034C0E07F2030031935
:100BAA007F30A20272067205500F120BD7C202C220
:100BBA0006C205C2087F30800F300503E9C0E01283
:100BCA000820300503D0E0F9D0E0B554CC30051741
:100BDA007F30B9100C1208207F583004077F7880C4
:100BEA0003B908031208203002057F2D0208207F6E
:100BFA00202008F87F2B2006F322920280CF7F0064
:100C0A00B407005005244BF8E6FF22286E756C6C79
:100C1A002900D2011207E53001F8C201785430D513
:100C2A000108F602088B2D504349581207E52403A0
:100C3A00B405004001E4900C3093120811743A1282
:0A0C4A000811D203755404020A5D7C
:10010400E9D2E7C933E833F892D5EDD2E7CD33EC41
:0701140033FC5002B2D522BA
:10011B00EC30E7100FBF000C0EBE00080DBD000445
:10012B000BEB6014A2D5EB13FCED92E7FD2274FFF1
:10013B00FCFDFEFF22E480F8A2D574FF13FC7D804A
:03014B00E480EF5E
:10014E00F920E72824F950037907E4F42402FB1878
:10015E00DBFDE624FB5014E9600DE4F618E604F628
:0F016E00B40A08E4F6D9F57401F60A22C2D522C4
:10017D00ED33EC3392D5FA602AB4FF33EDC2E77B51
:10018D00FF60067A0179A2E4227A0179AB20D504C9
:10019D007A0179A6224E614E002B494E46002D491B
:1001AD004E4600E47A08F608DAFC7B00740722E874
:1001BD00C0E0ECC0E0EDC0E0EEC0E0EFC0E0EA75FD
:1001CD00F010A4CAABF075F04DA42BFBE435F0FC98
:1001DD00EA2410FAEB34C5FBEC34D9FCEDC2E7FF91
:1001ED0075F056A4F42411C5F0F434C58FF0A42A8B
:1001FD00E5F03BE43CF620E7141204AED0E0FFD06E
:10020D00E0FED0E0FDD0E0FC1200298014F40412D1
:10021D0004AED0E0FFD0E0FED0E0FDD0E0FC120354
:10022D0078D0E0F8E6FAEDD2E7CD33EC332482FB5B
:10023D00E4C3CF33CFCE33CECD33CD33DBF37B071A
:10024D0075F00A846004F6081B0AE5F0F6088FF0D5
:10025D00740AA4FFACF08EF0740AA42CFEACF0501E
:10026D00010C8DF0740AA42CFDE435F0F608DBDEEC
:03027D00740722E1
:10028000020139E86480F8E933E83360110460F072
:10029000ED33EC337009E8FCE9FDEAFEEBFF2204E4
:1002A00060DED3EB9FEA9EE99DE8C2E78CF0C2F7DF
:1002B00095F0400CE8CCF8E9CDF9EACEFAEBCFFBAB
:1002C00012010485D0F05804700320D5B3E80470FF
:1002D000075002B2D502014392D5EC0460F7E4CC9A
:1002E000C0E0C398F8603B94186008400DD0E0FB74
:1002F00002011BE4FBFAC9FC8028E830E406E4C9EB
:10030000FBE4CAFCE830E305E4C9CACBFCE85407C7
:100310006010F8C3E913F9EA13FAEB13FBEC13FCD2
:10032000D8F130F52FC3E49CFCEF9BFFEE9AFEED75
:1003300099FDD0E0FBEF4E4D4C701222DB03020121
:1003400040EC2CFCEF33FFEE33FEED33FDED30E7F8
:10035000EB02011BEF2BFFEE3AFEED39FDD0E0FB87
:1003600050130BBB0003020143ED13FDEE13FEEF30
:0803700013FFEC13FC02011B5A
:10037800EC4D6011E8497017ED33EC3304600DE47F
:10038800FCFFFEFD22E933E8330470F8020139125C
:10039800010458046009E4CC24815006285009025D
:1003A8000143284003020140C0E0EB4A7044B98091
:1003B80006D0E0FB02012FEF4E701CBD8008EBFF5A
:1003C800EAFEE9FD80EBE98DF0A4FEE5F0020461A8
:1003D800E9CDF9EAFEEBFFEF89F0A4FCE5F0CE8960
:1003E800F0A42EFFE435F0CD89F0A42DFEE435F01D
:1003F8008067EF4E7005BD80D780C3EF8BF0A4AC4B
:10040800F0EE8BF0A42CFCE435F0F8EF8AF0A42C85
:10041800E5F038FCE433CB8DF0A42CFCE5F03BF898
:10042800EE8AF0A42CFCE5F038F8E433CF89F0A488
:100438002CFCE5F038CF3400CE89F0A42FFFE5F08E
:100448003EFEE433C98DF0A42EFEE5F039CD8AF0E6
:10045800A42FFFE5F03EFEE43DFD33D0E0FB50075E
:100468000BBB000F020143EC2CFCEF33FFEE33FE15
:06047800ED33FD02011B43
:10047E003F8000004120000042C80000447A000086
:10048E00461C400047C35000497424004B18968008
:10049E004CBEBC205A0E1BCA6753C21C749DC5AEFF
:1004AE00FB60065407601C23231204DCEB543860F7
:1004BE00091204C81204D7120378ECF8EDF9EEFA1B
:1004CE00EFCB22EB1204D780F1543803241C900496
:1004DE007EFE93FC0EEE93FD0EEE930ECE93FF2258
:03000000020DE509
:0C0DE500787FE4F6D8FD75816F020E2CBB
:1004EE00E709F608DFFA8046E709F208DFFA803EF0
:1004FE0088828C83E709F0A3DFFA8032E309F608DD
:10050E00DFFA8078E309F208DFFA807088828C8344
:10051E00E309F0A3DFFA806489828A83E0A3F608F8
:10052E00DFFA805889828A83E0A3F208DFFA804CD2
:10053E0080D280FA80C680D4806980F280338010A9
:10054E0080A680EA809A80A880DA80E280CA803312
:10055E0089828A83ECFAE493A3C8C582C8CCC5838A
:10056E00CCF0A3C8C582C8CCC583CCDFE9DEE7805A
:10057E000D89828A83E493A3F608DFF9ECFAA9F0D9
:10058E00EDFB2289828A83ECFAE0A3C8C582C8CC2F
:10059E00C583CCF0A3C8C582C8CCC583CCDFEADE48
:1005AE00E880DB89828A83E493A3F208DFF980CCAA
:1005BE0088F0EF60010E4E60C388F0ED2402B404A3
:1005CE000050B9F582EB2402B4040050AF2323454A
:0605DE00822390053E732C
:1005E400BB010689828A83E0225002E722BBFE0215
:0905F400E32289828A83E4932248
:1005FD00BB010CE58229F582E5833AF583E02250B3
:10060D0006E92582F8E622BBFE06E92582F8E222FC
:0D061D00E58229F582E5833AF583E4932216
:10062A00BB010FF8E58229F582E5833AF583E028D4
:10063A00F0225009C58229F8E58226F622BBFE0976
:10064A00C58229F8E22582F222F8EA2583F583E9B0
:03065A00932822C0
:10065D00BB010689828A83F0225002F722BBFE017C
:02066D00F32276
:10066F00BB0110E58229F582E5833AF583E0F5F0C9
:10067F00A3E0225009E92582F886F008E622BBFEA6
:10068F000AE92582F8E2F5F008E222E5832AF583EC
:08069F00E993F5F0A3E99322B1
:1006A70075F008758200EF2FFFEE33FECD33CDCC0A
:1006B70033CCC58233C5829BED9AEC99E58298408D
:1006C7000CF582EE9BFEED9AFDEC99FC0FD5F0D66A
:1006D700E4CEFBE4CDFAE4CCF9A88222B800C1B994
:1006E7000059BA002DEC8BF084CFCECDFCE5F0CBD2
:1006F700F97818EF2FFFEE33FEED33FDEC33FCEB0B
:1007070033FB10D703994004EB99FB0FD8E5E4F9C5
:10071700FA227818EF2FFFEE33FEED33FDEC33FCB2
:10072700C933C910D7059BE99A4007EC9BFCE99AA6
:10073700F90FD8E0E4C9FAE4CCFB2275F010EF2FEB
:10074700FFEE33FEED33FDCC33CCC833C810D707EB
:100757009BEC9AE899400AED9BFDEC9AFCE899F826
:0E0767000FD5F0DAE4CDFBE4CCFAE4C8F922B9
:0E077500C3E49FFFE49EFEE49DFDE49CFC2295
:10078300FAE6FB0808E6F925F0F618E6CA3AF62277
:10079300D083D082F8E4937012740193700DA3A3F5
:1007A30093F8740193F5828883E473740293686009
:0607B300EFA3A3A380DF09
:1007B900EF4E6012EF60010EEDBB010B89828A8357
:1007C900F0A3DFFCDEFA2289F05007F709DFFCA964
:0C07D900F022BBFEFCF309DFFCA9F022BB
:100DF100020C54E493A3F8E493A34003F68001F2B8
:100E010008DFF48029E493A3F85407240CC8C33302
:100E1100C4540F4420C8834004F456800146F6DFD1
:100E2100E4800B010204081020408090115BE47EF5
:100E3100019360BCA3FF543F30E509541FFEE493C6
:100E4100A360010ECF54C025E060A840B8E493A38D
:100E5100FAE493A3F8E493A3C8C582C8CAC583CAB8
:100E6100F0A3C8C582C8CAC583CADFE9DEE780BE70
:01116C000082
:00000001FF
